:100000000C9434000C9444010C9451000C94510055
:100010000C9451000C9451000C9451000C9451001C
:100020000C9451000C9451000C9451000C9451000C
:100030000C9451000C9451000C9451000C945100FC
:100040000C9451000C9451000C9451000C945100EC
:100050000C9451000C9451000C9451000C945100DC
:100060000C9451000C94510011241FBECFEFD8E026
:10007000DEBFCDBF12E0A0E0B1E0EAE2FEE002C0E8
:1000800005900D92A238B107D9F722E0A2E8B2E0BC
:1000900001C01D92AB3AB207E1F70E94F5000C9443
:1000A00013070C940000CF93DF931F92CDB7DEB7F8
:1000B00086E291E00E941B0484E591E00E941B040B
:1000C00041E050E0BE016F5F7F4F80E00E948601FB
:1000D00089811F928F9380E891E09F938F930E9474
:1000E000050441E050E0BE016F5F7F4F81E00E9458
:1000F000860189811F928F938EE891E09F938F9361
:100100000E94050441E050E0BE016F5F7F4F82E036
:100110000E94860189811F928F938CE991E09F93C1
:100120008F930E94050441E050E0BE016F5F7F4F56
:1001300084E00E94860189811F928F938DEA91E06D
:100140009F938F930E94050441E050E0BE016F5FD2
:100150007F4F85E00E94860189811F928F938FEBEC
:1001600091E09F938F930E94050441E050E0BE010F
:100170006F5F7F4F86E00E94860189811F928F9377
:100180008DEC91E09F938F930E94050441E050E035
:10019000BE016F5F7F4F87E00E94860189811F92B9
:1001A0008F938DED91E09F938F930E94050441E022
:1001B00050E0BE016F5F7F4F8DE10E948601898113
:1001C0001F928F938BEE91E09F938F930E94050473
:1001D0000FB6F894DEBF0FBECDBF8AEF91E00E944C
:1001E0001B040F90DF91CF910895CF93DF93CDB78C
:1001F000DEB7A0970FB6F894DEBF0FBECDBF80E18B
:10020000E7E2F2E0DE01119601900D928A95E1F7A6
:100210000E94EB030E9489010E9453000E94BC02CD
:10022000809183028823E1F3109283020E9483036A
:100230009F938F9387E392E09F938F930E9405048F
:100240002FEF89E698E1215080409040E1F700C00F
:100250000000CE0101960E94C90291E00F900F901C
:100260000F900F90811101C090E0909382028091D5
:1002700082028823A9F28DE492E09F938F930E94DB
:1002800005040F900F90CCCF1F920F920FB60F92D4
:1002900011248F9381E0809383028F910F900FBE82
:1002A0000F901F901895BF92CF92DF92EF92FF921E
:1002B0000F931F93CF93DF936B017A0195B19B7FCF
:1002C00095B90E94CC03B82EC0E0D0E00AC08601E8
:1002D0000C0F1D1FF80180810E94CC03F801808360
:1002E0002196CE15DF0598F385B1846085B98B2DF5
:1002F000DF91CF911F910F91FF90EF90DF90CF9002
:10030000BF90089580620E94530108950E94530196
:1003100008950F931F93CF93DF931F92CDB7DEB74E
:10032000F894E9E6F0E08081826080838DB381609B
:100330008DBB789484B1826084B984B1846084B9BF
:1003400085B1846085B985B18D7F85B90E94BB0375
:100350002FEF81EE94E0215080409040E1F700C003
:1003600000000FE30093A40241E050E064EA72E071
:1003700080E00E9482011092A40241E050E064EA11
:1003800072E081E00E94820180EF8093A40241E04C
:1003900050E064EA72E084E00E9482011092A402BC
:1003A00041E050E064EA72E082E00E94820184E76A
:1003B0008093A40241E050E064EA72E085E00E948C
:1003C00082018EE08093A40241E050E064EA72E092
:1003D00086E00E94820110E71093A40241E050E001
:1003E00064EA72E087E00E9482010093A40241E087
:1003F00050E064EA72E08CE10E94820184E0809324
:10040000A40241E050E064EA72E08DE10E948201C2
:10041000198340E050E060E070E082EE0E948201CB
:1004200040E050E060E070E081EE0E94820145E033
:1004300050E065E071E08AE00E94820145E050E012
:1004400060E071E080E10E94820141E050E0BE0185
:100450006F5F7F4F82E00E94820189818160898382
:1004600041E050E0BE016F5F7F4F82E00E94820159
:100470000F90DF91CF911F910F9108951F93CF930C
:10048000DF931F92CDB7DEB7182F41E050E0BE01D9
:100490006F5F7F4F80E00E948601133071F128F476
:1004A000113059F01230E9F062C0153009F447C03C
:1004B000D0F1163009F447C05AC0898181FD57C078
:1004C00082608093A40241E050E064EA72E080E040
:1004D0000E9482018FE39FE10197F1F700C00000C5
:1004E00046C089818D7F8093A40241E050E064EA98
:1004F00072E080E00E9482013AC08981816080932D
:10050000A40241E050E064EA72E080E00E948201CF
:1005100080E78093A40241E050E064EA72E087E063
:100520000E94820124C089818E7F8093A40241E0D1
:1005300050E064EA72E080E00E94820118C085B158
:100540008D7F85B914C089818E7F8093A40241E09C
:1005500050E064EA72E080E00E94820185B182602E
:1005600085B987E592E00197F1F700C000000F9090
:10057000DF91CF911F91089583E00E943E0285B1E3
:10058000826085B987E592E00197F1F700C000002D
:100590000895CF92DF92EF92FF920F931F93CF9324
:1005A000DF93CDB7DEB7A0970FB6F894DEBF0FBECE
:1005B000CDBF7C0100E2CE010196FC01202F1192FB
:1005C0002A95E9F7B7010E94FE03F7010190002088
:1005D000E9F731971E2F1E1984E00E943E0240E089
:1005E00050E060E070E082EE0E94820140E050E066
:1005F00060E070E081EE0E9482010093A40241E07D
:1006000050E064EA72E087E00E94820141E050E03D
:1006100064EA72E080E00E9486018091A402806416
:100620008093A40241E050E064EA72E080E00E941E
:10063000820185B18B7F85B980EB0E94C7030AC018
:1006400067018FEFC81AD80AF70180810E94C7039B
:10065000102F76010FEF010F1111F2CF80E00E94F1
:10066000C70385B1846085B985B1826085B9F0E53D
:10067000FA95F1F785B18D7F85B941E050E064EAE4
:1006800072E087E00E94860107C041E050E064EA22
:1006900072E087E00E9486018091A40285FFF5CF79
:1006A000CE0101969F938F9389E692E09F938F935B
:1006B0000E94050441E050E064EA72E080E00E949C
:1006C00086018091A4028F7B8093A40241E050E0D8
:1006D00064EA72E080E00E9482010E94BC020F90F6
:1006E0000F900F900F9081E0A0960FB6F894DEBFA8
:1006F0000FBECDBFDF91CF911F910F91FF90EF9073
:10070000DF90CF90089580E2E4E8F2E0DF011D92EF
:100710008A95E9F741E050E064EA72E080E60E94E1
:1007200086014091A402442341F050E04F5F5F4FA7
:1007300064E872E081E60E9453018091840288237C
:1007400069F080E48093A40241E050E064EA72E042
:1007500087E00E94820184E892E0089580E480931B
:10076000A40241E050E064EA72E087E00E94820166
:100770008BE792E0089584B18F7E84B984B188625A
:1007800084B980E58CBD8DB581608DBD08958EBD29
:100790000DB407FEFDCF08958EBD0DB407FEFDCF4D
:1007A0008EB50895CF93C82F8A3019F48DE00E943A
:1007B000D2038091C00085FFFCCFC093C60080E0CB
:1007C00090E0CF9108958091C0008823E4F7809154
:1007D000C60090E008951092C50087E68093C4009B
:1007E00088E18093C100E5EAF2E088E191E093833B
:1007F00082838AE091E0918380830895FB01DC018C
:1008000001900D920020E1F70895A0E0B0E0EBE048
:10081000F4E00C94EC06AE014B5F5F4FFA0161917E
:100820007191AF018091A7029091A8020E944B04A0
:10083000E2E00C9408070F931F93CF93DF93E091AE
:10084000A702F091A802238121FF1BC08C01D0E0F8
:10085000C0E0F80181918F016091A7027091A80218
:10086000DB011896ED91FC911997882331F00995D9
:10087000892B79F3DFEFCFEFECCF8AE00995892B55
:1008800019F08FEF9FEF02C08D2F9C2FDF91CF913A
:100890001F910F910895ABE0B0E0E1E5F4E00C9416
:1008A000DC066C017B018A01FC01178216828381C0
:1008B00081FFCCC1CE0101963C01F6019381F70185
:1008C00093FD859193FF81917F01882309F4BAC13B
:1008D000853239F493FD859193FF81917F018532B3
:1008E00029F4B60190E00E944206E7CF912C212C1A
:1008F000312CFFE1F315D8F08B3279F038F48032E7
:1009000079F08332A1F4232D20611DC08D3261F076
:10091000803369F4232D216016C0832D8260382E28
:10092000E32DE4603E2E2AC0F32DF8601DC037FC95
:100930002DC020ED280F2A3040F08E32B9F436FC5D
:1009400081C1232D2064322E19C036FE06C08AE0F4
:10095000989E200D1124922E11C0EAE02E9E200DAB
:100960001124222EF32DF0623F2E08C08C3621F484
:10097000832D8068382E02C0883641F4F70193FD3C
:10098000859193FF81917F018111B3CF982F9F7D36
:100990009554933028F40C5F1F4F9FE399830DC04B
:1009A000833631F0833771F0833509F059C021C0A7
:1009B000F801808189830E5F1F4F88248394912CD6
:1009C000530113C02801F2E04F0E511CF801A08022
:1009D000B18036FE03C0692D70E002C06FEF7FEF7B
:1009E000C5010E9437064C018201F32DFF773F2E8F
:1009F00016C0280122E0420E511CF801A080B180EF
:100A000036FE03C0692D70E002C06FEF7FEFC501B5
:100A10000E942C064C01F32DF0683F2E820133FC1E
:100A20001BC0822D90E088169906B0F4B60180E2D2
:100A300090E00E9442062A94F4CFF50137FC85919C
:100A400037FE81915F01B60190E00E9442062110BD
:100A50002A9421E0821A91088114910471F7E8C068
:100A6000843611F0893641F5F80137FE07C0608100
:100A70007181828193810C5F1F4F08C060817181F9
:100A8000072E000C880B990B0E5F1F4FF32DFF767E
:100A90003F2E97FF09C090958095709561957F4F87
:100AA0008F4F9F4FF0683F2E2AE030E0A3010E9455
:100AB0007E06882E861845C0853731F4232D2F7E7B
:100AC000B22E2AE030E025C0932D997FB92E8F36C3
:100AD000C1F018F4883579F0B5C0803719F088373F
:100AE00021F0B0C0E92FE061BE2EB4FE0DC0FB2D99
:100AF000F460BF2E09C034FE0AC0292F2660B22E32
:100B000006C028E030E005C020E130E002C020E16E
:100B100032E0F801B7FE07C0608171818281938164
:100B20000C5F1F4F06C06081718180E090E00E5F16
:100B30001F4FA3010E947E06882E8618FB2DFF778B
:100B40003F2E36FE0DC0232D2E7FA22E891458F481
:100B500034FE0BC032FC09C0832D8E7EA82E05C04A
:100B6000B82CA32C03C0B82C01C0B92CA4FE0FC014
:100B7000FE01E80DF11D8081803321F49A2D997ECC
:100B8000A92E09C0A2FE06C0B394B39404C08A2D56
:100B9000867809F0B394A3FC11C0A0FE06C0B2147D
:100BA00088F4280C922C9B180EC0B21460F4B60185
:100BB00080E290E00E944206B394F7CFB21418F49A
:100BC0002B1802C0982C212CA4FE10C0B60180E383
:100BD00090E00E944206A2FE17C0A1FC03C088E775
:100BE00090E002C088E590E0B6010CC08A2D8678BE
:100BF00059F0A1FE02C08BE201C080E2A7FC8DE2A9
:100C0000B60190E00E944206891438F4B60180E3F0
:100C100090E00E9442069A94F7CF8A94F301E80D7F
:100C2000F11D8081B60190E00E9442068110F5CF4F
:100C3000222009F442CEB60180E290E00E944206F2
:100C40002A94F6CFF6018681978102C08FEF9FEF3D
:100C50002B96E2E10C94F806FC010590615070407F
:100C60000110D8F7809590958E0F9F1F0895FC0175
:100C70006150704001900110D8F7809590958E0FCB
:100C80009F1F08950F931F93CF93DF93FB01238141
:100C900021FD03C08FEF9FEF2CC022FF16C04681BD
:100CA0005781248135814217530744F4A081B181D3
:100CB0009D012F5F3F4F318320838C9326813781A5
:100CC0002F5F3F4F3783268314C08B01EC01FB015C
:100CD0000084F185E02D0995892BE1F6D80116965F
:100CE0008D919C911797019617969C938E931697CA
:100CF000CE01DF91CF911F910F910895FA01AA279C
:100D0000283051F1203181F1E8946F936E7F6E5F4E
:100D10007F4F8F4F9F4FAF4FB1E03ED0B4E03CD0FC
:100D2000670F781F891F9A1FA11D680F791F8A1FDF
:100D3000911DA11D6A0F711D811D911DA11D20D046
:100D400009F468943F912AE0269F11243019305D00
:100D50003193DEF6CF010895462F4770405D4193F1
:100D6000B3E00FD0C9F7F6CF462F4F70405D4A333E
:100D700018F0495D31FD4052419302D0A9F7EACF06
:100D8000B4E0A6959795879577956795BA95C9F735
:100D900000976105710508959B01AC010A2E069428
:100DA0005795479537952795BA95C9F7620F731FE1
:100DB000841F951FA01D08952F923F924F925F921E
:100DC0006F927F928F929F92AF92BF92CF92DF925B
:100DD000EF92FF920F931F93CF93DF93CDB7DEB7C0
:100DE000CA1BDB0B0FB6F894DEBF0FBECDBF099454
:100DF0002A88398848885F846E847D848C849B84AB
:100E0000AA84B984C884DF80EE80FD800C811B81B8
:100E1000AA81B981CE0FD11D0FB6F894DEBF0FBEE7
:0A0E2000CDBFED010895F894FFCF57
:100E2A00E7E7E7E7E7E7E7E7E7E7000000010000B1
:100E3A0000000000E30300000000000200000000C0
:100E4A00D2030000000053746172747570207375C8
:100E5A00636365737366756C0A0A206E5246323490
:100E6A004C30312B20636F6E66696775726564203A
:100E7A0061733A002D2D2D2D2D2D2D2D2D2D2D2D3E
:100E8A002D2D2D2D2D2D2D2D2D2D2D2D2D2D2D2D88
:100E9A002D2D2D2D2D2D2D2D2D2D2D2D2D2D2D00A5
:100EAA00434F4E4649470909307825780A00454E8E
:100EBA005F4141090909307825780A00454E5F5299
:100ECA0058414444520909307825780A0053455458
:100EDA0055505F524554520909307825780A005214
:100EEA00465F4348090909307825780A0052465F67
:100EFA0053455455500909307825780A005354410E
:100F0A005455530909307825780A00464541545505
:100F1A0052450909307825780A002D2D2D2D2D2DC1
:100F2A002D2D2D2D2D2D2D2D2D2D2D2D2D2D2D2DE7
:100F3A002D2D2D2D2D2D2D2D2D2D2D2D2D2D2D2DD7
:100F4A002D2D2D2D2D0A0048656C6C6F2066726F51
:100F5A006D204E616E6F0052656365697665642027
:100F6A006D6573736167653A2025730A004D657371
:100F7A00736167652073656E742073756363657347
:100F8A007366756C6C790041004D657373616765B2
:100F9A002073656E743A2025730A006661696C6570
:020FAA006400E1
:00000001FF
